:0200000066296F
:0E000600213083120313FD00FD0B07280800B4
:100014000F3083120313FC004730FD00FD0B102842
:0A002400FC0B10280000000008008B
:06002E00000000000800C4
:1000340083120313CE1B20288611212886154E1BFC
:100044002528061126280615CE1A2A2886102B28BC
:1000540086144E1A2F280610302806144418342803
:10006400061635280612861617208612CE193C2845
:1000740086113D2886154E19412806114228061579
:10008400CE1846288610472886144E184B2806108A
:100094004C280614441850280616512806128616B1
:1000A40017208612441C58280A20592803200800C7
:1000B400023083120313FC004930FD00FD0B60285D
:0A00C400FC0B60280000000008009B
:1000CE008312031344104D08CE001A204414080066
:0E00DE008312031343088A00420882000800C0
:1000EC0083120313CC014808F1000130F0007108B1
:1000FC0003198428F00D7010FF3E7E287008CB0089
:10010C004708840070080005F10071080130031DD8
:10011C000030F0004A08F0060319AC284908003CEE
:10012C0003189C285A205A20C90394284708840095
:10013C004B080005F10071080130031D0030F00080
:10014C004A08F0060319AC28FF30CC004C08F0002C
:02015C00080099
:10015E0083160313861206120610861006118611D8
:10016E0083128612061286110611861006100A20B8
:10017E000A200A20861406148616172086120A20D4
:10018E008616172086120A208616172086120A2037
:10019E0006108616172086120A208616172086123B
:1001AE00861086158616172086120A2086110614CA
:1001BE0086161720861206108616172086120A201B
:1001CE0086161720861206148616172086120A2007
:1001DE000610861617208612861506158614061426
:0C01EE008616172086120A204414080010
:1001FA000F29803083120313C7002229C030C70099
:10020A0022299430C7002229D430C70022298030FD
:10021A00C7002229831203134708013A0319FE284B
:10022A004708023A031903294708033A031906291A
:10023A004708043A031909290C294803F00047081A
:10024A00F0077008C7007008CE001A204410CA01CF
:10025A004A0849078400000803193B294A08490744
:10026A0084000008CD006720CA0A2D29441408001A
:10027A00831203134708C6004808F1000130F00052
:10028A00710803194C29F00D7010FF3E46297008B9
:10029A00C500F0097008C100803047078400700863
:0A02AA008005841370088005080029
:1002B4006F208A110A128000840AC20A0319C30A31
:0802C400F003031D5A29080094
:1002CC00493083120313A0005A30A1005130A20010
:1002DC005530A3004930A4004530A5005230A6008B
:1002EC004430A7004130A800A9014430AA00453091
:1002FC00AB005230AC004530AD004330AE0048305E
:10030C00AF004130B000B1014130B2004430B30015
:10031C004530B4004C30B5004130B6004E30B7001B
:10032C005430B8004530B900BA014130BB004230FE
:10033C00BC004130BD004A30BE004F30BF00C00190
:10034C008316031788018901031388010130850086
:10035C008601870108308312C7000330C8003D2195
:10036C00AF2087010530C700C8010130C90001303A
:10037C00CA00762070080319DD290130C70001304E
:10038C00C8003230C900FD20013087001F30FB004F
:10039C007130FC001E30FD00FD0BD229FC0BD22964
:1003AC00FB0BD229000087010130CE001A2005304A
:1003BC00C7000130C8000130C9000130CA007620E6
:1003CC0070080319032A0130C7000130C8003B3004
:1003DC00C900FD20083087001F30FB007130FC0085
:1003EC001E30FD00FD0BF829FC0BF829FB0BF8293E
:1003FC00000087010130CE001A200530C700043000
:10040C00C8000130C9000130CA00762070080319F9
:10041C00292A0130C7000130C8002A30C900FD204C
:10042C00043087001F30FB007130FC001E30FD00D3
:10043C00FD0B1E2AFC0B1E2AFB0B1E2A000087013B
:10044C000130CE001A200530C7000730C80001303B
:10045C00C9000130CA007620700803194F2A0130F8
:10046C00C7000130C8002030C900FD2002308700D1
:10047C001F30FB007130FC001E30FD00FD0B442AC8
:10048C00FC0B442AFB0B442A000087010130CE00F0
:06049C001A20B829502AC5
:04400E00D2230007B2
:00000001FF
